:020000040800F2
:108000000000022045950008599400085F9400087C
:10801000659400086B94000871940008000000004B
:10802000000000000000000000000000779400083D
:10803000859400080000000093940008A1940008B3
:108040009595000895950008959500089595000868
:108050009595000895950008959500089595000858
:108060009595000895950008959500089595000848
:108070009595000895950008959500089595000838
:108080009595000895950008959500089595000828
:108090009595000895950008959500089595000818
:1080A0009595000895950008959500089595000808
:1080B00095950008959500089595000895950008F8
:1080C00095950008959500089595000895950008E8
:1080D00095950008959500089595000895950008D8
:1080E00095950008959500089595000895950008C8
:1080F00095950008959500089595000895950008B8
:1081000095950008959500089595000895950008A7
:108110009595000895950008959500089595000897
:108120009595000895950008959500089595000887
:108130009595000895950008959500089595000877
:108140009595000895950008959500089595000867
:108150009595000895950008959500089595000857
:108160009595000895950008959500089595000847
:108170009595000895950008959500080000000069
:08818000959500089595000893
:1081900010B5054C237833B9044B13B10448AFF341
:1081A00000800123237010BD7C000020000000002F
:1081B000ECBC000808B5034B1BB103490348AFF3FF
:1081C000008008BD0000000080000020ECBC00081A
:1081D000034613F8012B002AFBD1181A0138704707
:1081E00001F0FF01102A2BDB10F0070F08D010F868
:1081F000013B013A8B422DD010F0070F42B3F6D16C
:10820000F0B441EA012141EA014122F007047FF084
:1082100000070023F0E80256083C85EA010586EADB
:10822000010685FA47F5A3FA87F586FA47F6A5FA17
:1082300087F68EB9EED1F0BC01F0FF0102F0070223
:1082400032B110F8013B013A83EA010313B1F8D1CE
:108250000020704701387047002D06BF35460338AF
:10826000073815F0010F07D1013015F4807F02BFE8
:10827000013015F4C03F0130F0BC0138704700BF39
:1082800053B94AB9002908BF00281CBF4FF0FF317D
:108290004FF0FF3000F06EB9ADF1080C6DE904CE7F
:1082A00000F006F8DDF804E0DDE9022304B07047D1
:1082B0002DE9F047089D04468C46002B40F0838052
:1082C0008A42174647D9B2FA82F242B1C2F120007F
:1082D00024FA00F09140974040EA010C94404FEAA4
:1082E0001748230CBCFBF8F61FFA87FE08FB16C1E3
:1082F00043EA014306FB0EF1994209D9FB1806F146
:10830000FF3080F01981994240F21681023E3B44D1
:108310005B1AA4B2B3FBF8F008FB103344EA034441
:1083200000FB0EFEA64509D93C1900F1FF3380F091
:108330000581A64540F2028102383C4440EA0640ED
:10834000A4EB0E0400261DB1D4400023C5E9004370
:108350003146BDE8F08702B9FFDEB2FA82F2002AA8
:1083600050D1CB1B4FEA174E1FFA87F80126B3FBFB
:10837000FEFC210C0EFB1C3341EA034108FB0CF30D
:108380008B4207D979180CF1FF3002D28B4200F2F0
:10839000E9808446C91AA3B2B1FBFEF00EFB1011AE
:1083A00043EA014408FB00F8A04507D93C1900F155
:1083B000FF3302D2A04500F2D9801846A4EB08048E
:1083C00040EA0C40BFE78B4209D9002D00F0B18094
:1083D0000026C5E9000130463146BDE8F087B3FA12
:1083E00083F6002E4AD18B4202D3824200F2B8803B
:1083F000841A61EB030101208C46002DA8D0C5E949
:10840000004CA5E7C2F1200320FA03F6974001FAD9
:1084100002F04FEA174ED9403043030CB1FBFEF691
:108420001FFA87F80EFB161143EA014306FB08F119
:10843000994204FA02F409D9FB1806F1FF3C80F0D6
:108440008D80994240F28A80023E3B445B1A81B2A1
:10845000B3FBFEF00EFB103341EA034100FB08F3CF
:108460008B4207D9791800F1FF3C73D28B4271D946
:1084700002383944CB1A40EA064678E7C6F1200CA8
:1084800003FA06F422FA0CF31C4320FA0CF701FA63
:1084900006F34FEA144E21FA0CF11F433B0CB1FBDB
:1084A000FEF91FFA84F80EFB191143EA014109FB9A
:1084B00008FA8A4502FA06F200FA06F308D96118AA
:1084C00009F1FF3048D28A4546D9A9F10209214471
:1084D000A1EB0A01BFB2B1FBFEF00EFB101147EA9F
:1084E000014700FB08F8B84507D9E71900F1FF314B
:1084F0002ED2B8452CD90238274440EA0940A7EBD0
:108500000807A0FB02894F45C64649461AD317D033
:108510005DB1B3EB0E0267EB010707FA0CFCF2400A
:108520004CEA0202F740C5E9002700263146BDE8C3
:10853000F0872E4628460BE70646E9E61846FDE694
:108540004345E5D2B8EB020E69EB04010138DFE7E1
:108550000846D2E760468DE78146B9E7664675E78B
:1085600030464AE7ACF1020C394413E702383C4488
:1085700024E700BF704700BF80B584B000AF7860CB
:10858000144800F05FFC7B681B780133FB60FB68DC
:1085900003F18043043B9B007A6813441B68BB6073
:1085A0007B681B781846FB68043BBA68194600F0E4
:1085B000C9FB0346002B06D0074800F043FC01200E
:1085C00000F0F2FB01E000F007FC00BF1037BD46F1
:1085D00080BD00BF04BD00081CBD000880B584B08C
:1085E00000AF78601B4800F02DFC7B681B780133DE
:1085F000FB60FB6803F18043043B9B007A681344F3
:108600001B68BB607B681B781846FB68043BBA6834
:10861000194600F097FB0346002B14D00E4800F0DB
:1086200011FC0E48FFF7D4FD0346DBB2184600F0FC
:10863000BBFB0A48FFF7CCFD0346DBB219460748EF
:1086400000F0DCFB01E000F0C7FB00BF1037BD46C7
:1086500080BD00BF40BD00081CBD00080000002018
:1086600080B586B000AF78600023FB821E4800F022
:10867000E9FB7B681B7801333B613B6903F1804375
:10868000043B9B007A6813441B68FB607B681B7883
:1086900018463B69043BFA68194600F053FB034651
:1086A000002B1BD0114800F0CDFB0220FFF790FDFE
:1086B0000346DBB2184600F077FB0D4B1B689BB2FC
:1086C000C3F30B03FB82FB8A19460A4800F0BAFB8E
:1086D000FB8A0221184600F091FB01E000F07CFBD0
:1086E00000BF1837BD4680BD54BD00081CBD000842
:1086F000002004E068BD000880B586B000AF786057
:108700001C4800F09FFB0023FB737B681B78013340
:108710007B617B6903F18043043B9B007A681344CF
:108720001B683B617B681B7818467B69043B3A6990
:10873000194600F007FB0346002B15D00E4800F049
:1087400081FB012000F030FB00F06CFB0346FB7363
:10875000FB7B1946094800F075FB07F10F03012167
:10876000184600F091FB01E000F036FB00BF18371F
:10877000BD4680BD88BD00081CBD00089CBD00082A
:1087800080B588B000AF78602A4800F05BFB00231A
:10879000FB610123FB720023FB767B681B780133AE
:1087A0007B617B6903F18043043B9B007A6813443F
:1087B0001B683B617B681B7818467B69043B3A6900
:1087C000194600F0BFFA0346002B2CD01A4800F0DF
:1087D00039FB012000F0E8FA7B680233FB61F9699C
:1087E000164800F02FFBF86900F07EFA0346002BD4
:1087F0000FD1FB7E0121184600F000FBFB6901331D
:10880000FB61FB69FB600E4800F01CFBFB689847AE
:108810000BE007F10B030121184600F0EFFA0948BD
:1088200000F010FB01E000F0D7FA00BF2037BD4692
:1088300080BD00BFACBD00081CBD0008C8BD00085D
:10884000DCBD0008F4BD000880B586B000AF7860DC
:108850000023FB751C4800F0F5FA7B681B78013398
:108860003B613B6903F18043043B9B007A681344FE
:108870001B68FB607B681B7818463B69043BFA6801
:10888000194600F05FFA0346002B17D00F4800F09E
:10889000D9FA012000F088FA7B6802331A787B68E5
:1088A00003331B781946104600F0A0F90346FB7508
:1088B000FB7D1946064800F0C5FA01E000F08CFA8D
:1088C00000BF1837BD4680BD10BE00081CBD0008A3
:1088D00034BE000880B588B000AF78600023FB7715
:1088E0000023FB730023BB7700237B777B681B7817
:1088F0007B777B689B793B777B68D3F80230BB61E1
:108900007B7F7A6813441B78BB77284800F09AFA7B
:108910007B681B7801337B617B6903F18043043BF7
:108920009B007A6813441B683B617B681B78184680
:108930007B69043B3A69194600F004FA0346002BB0
:108940002ED01B4800F07EFA012000F02DFAB96904
:10895000184800F077FAB86900F0C6F90346002B12
:1089600014D1154800F06EFA7B6807331B7818465F
:108970003B7F1A46B96900F08CF90346FB7307F197
:108980000F030121184600F039FA0BE00B4800F004
:1089900059FA07F10F030121184600F02FFA01E000
:1089A00000F01AFA00BF2037BD4680BD64BE000843
:1089B0001CBD000880BE00089CBE0008C0BE0008A8
:1089C00080B586B000AF78600023FB731F4800F0CD
:1089D00039FA7B681B7801337B617B6903F1804343
:1089E000043B9B007A6813441B683B617B681B78DF
:1089F00018467B69043B3A69194600F0A3F903461F
:108A0000002B1DD0124800F01DFA012000F0CCF917
:108A10007B68023318787B6803331B780022194681
:108A200000F062F80346FB73FB7B1946094800F02F
:108A300009FA07F10F030121184600F0DFF901E000
:108A400000F0CAF900BF1837BD4680BDE8BE000877
:108A50001CBD000808BF000880B586B000AF786074
:108A60000023FB731D4800F0EDF97B681B78013390
:108A70007B617B6903F18043043B9B007A6813446C
:108A80001B683B617B681B7818467B69043B3A692D
:108A9000194600F057F90346002B18D0104800F093
:108AA000D1F9012000F080F901220021002000F01E
:108AB0001BF80346FB73FB7B19460A4800F0C2F91A
:108AC00007F10F030121184600F098F901E000F0CA
:108AD00083F900BF1837BD4680BD00BFE8BE00085F
:108AE0001CBD000808BF000880B584B000AF034675
:108AF000FB710B46BB7113467B713A4BFB607B7974
:108B0000012B1ED100F090FF00BF374BDB6803F450
:108B10008033002BF9D1FB681B6843F47F02FB68AC
:108B20001A60FB681B6843F00202FB681A6000BF12
:108B30002D4BDB6803F48033002BF9D100F090FF5C
:108B40004BE0BB79012B20D100F06EFF00BF264B1C
:108B5000DB6803F48033002BF9D1FB681B68FA79DA
:108B60001204D2431A40FB681A60FB681B6843F08A
:108B70000202FB681A6000BF1B4BDB6803F4803302
:108B8000002BF9D100F06CFF27E0BB79022B24D138
:108B900000F04AFF00BF144BDB6803F48033002B66
:108BA000F9D1FB681B6823F47F02FB681A60FB683D
:108BB0001B68FA7912041A43FB681A60FB681B6889
:108BC00043F00202FB681A6000BF074BDB6803F446
:108BD0008033002BF9D100F043FF002318461037F3
:108BE000BD4680BD143C0240003C024080B58AB0C6
:108BF00000AF03460A46FB711346BB7107F1100331
:108C000000221A605A609A60DA601A610023FB60E1
:108C1000002387F82730BB790B2B01D9042334E0DC
:108C2000BB790B2B02D9FB79FF2B2ED1FB79FF2BC4
:108C300002D101233B6112E0FB79C3F10B0387F8FA
:108C40002630FA7997F826309A4202D997F82630DA
:108C5000FB7100233B61FB79BB61BB79FB610123A5
:108C60007B6100F0AFFE02233B6207F10C0207F1CB
:108C700010031146184601F033F8034687F82730F1
:108C800000F0C2FE97F82730FFE718462837BD46A8
:108C900080BD80B586B000AFF860B9607A6000230F
:108CA000FB7500F08FFE00233B6111E03A69BB6861
:108CB000D1183B69FA6813441B78DAB24FF000030D
:108CC000002000F02BFE0346FB753B6901333B613E
:108CD0003B697A689A42E9D800F096FEFB7D184617
:108CE0001837BD4680BD000080B483B000AF786007
:108CF0007B68B3F1006F05D37B68B3F1016F01D2DC
:108D0000002314E07B68B3F1005F05D37B680B4A56
:108D1000934201D800230AE07B68084A934205D3B6
:108D20007B68074A934201D8002300E001231846DC
:108D30000C37BD465DF8047B704700BF00C00120C2
:108D40000000022080B588B000AFF860B9607A609A
:108D5000FF23FB6100237B610023BB610FE0FA6806
:108D6000BB6913441B787B6107F114030122194688
:108D70000C4800F0A8FDF861BB690133BB61BA691A
:108D8000BB689A42EBD3074B00225A71FA697B68A1
:108D90009A4201D1012300E0012318462037BD4645
:108DA00080BD00BFF401002080B584B000AF034651
:108DB000FB71A5233B73FB797B7307F10C014FF02B
:108DC000FF330222034801F0C6FF00BF1037BD4643
:108DD00080BD00BFB001002080B582B000AF7F230E
:108DE000FB71F91D4FF0FF330122034801F0B3FF7F
:108DF00000BF0837BD4680BDB001002080B582B0FD
:108E000000AF78600B46FB70FB789AB24FF0FF33EF
:108E10007968034801F09FFF00BF0837BD4680BD59
:108E2000B001002080B588B000AF0023FB773B463F
:108E3000184600F0C5FF3B69FB77FB7F18462037DB
:108E4000BD4680BD0FB480B59AB000AF07F1740382
:108E50003B603B1D3A68396F184602F02FFB3B1D03
:108E60001846FFF7B5F903469AB2391D4FF47A73E5
:108E7000044801F070FF00BF6837BD46BDE8804080
:108E800004B07047B001002080B582B000AF00236D
:108E9000FB714FF4857200212D4802F0F1FA4FF476
:108EA0007A7301222A492B4801F0E7FF284B1B78EF
:108EB000FB71FB799AB24FF47A732749254801F088
:108EC000DCFF234B5B78513B0B2B3FD801A252F8C0
:108ED00023F000BF058F00080D8F0008158F0008D4
:108EE0001D8F0008258F00082D8F0008358F000882
:108EF0003D8F00084D8F00084D8F00084D8F0008F2
:108F0000458F00081248FFF737FB20E01048FFF7B5
:108F100065FB1CE00E48FFF7A3FB18E00C48FFF7C9
:108F2000EBFB14E00A48FFF72BFC10E00848FFF7C2
:108F30008BFC0CE00648FFF7CDFC08E00448FFF787
:108F40003FFD04E00248FFF787FD00E000BFA0E717
:108F5000A4000020B0010020A500002080B584B04E
:108F600000AF0F48FFF76EFF0E4B1B68FB60F96800
:108F70000D48FFF767FFFB683B603B6883F3088899
:108F800000BF0A4B1B68BB60B9680948FFF75AFF6E
:108F9000BB687B607B68984700BF1037BD4680BDCB
:108FA00038BF00080080000878BF0008048000086F
:108FB00098BF000880B500AF00F0EEFA00F03CF872
:108FC00000F00CF900F0A2F800F0B4F800F0DCF8C2
:108FD0000121124801F0B2F90346012B05D11048D6
:108FE000FFF730FFFFF750FF04E00E48FFF72AFFBE
:108FF000FFF7B4FF4FF480510B4801F0D0F94FF464
:10900000FA7000F03BFB642307220849084801F08E
:10901000A2FE0848FFF716FFECE700BF0000024081
:10902000BCBF0008DCBF0008000C024004C0000800
:10903000B00100200CC0000880B594B000AF07F16B
:10904000200330220021184602F01AFA07F10C031F
:1090500000221A605A609A60DA601A610023BB60CD
:10906000284B1B6C274A43F080531364254B1B6C21
:1090700003F08053BB60BB6800237B60224B1B68FE
:10908000214A43F4804313601F4B1B6803F4804361
:109090007B607B6801233B624FF480337B62022359
:1090A000BB634FF48003FB6304233B64A8237B640E
:1090B0000223BB640423FB6407F12003184601F07C
:1090C00089F90346002B01D000F0F6F80F23FB606E
:1090D00002233B6100237B614FF4A053BB614FF43B
:1090E0008053FB6107F10C030521184601F0EAFBF0
:1090F0000346002B01D000F0DFF800BF5037BD461B
:1091000080BD00BF003802400070004080B500AF55
:10911000064B074A1A60054800F0B9FB0346002BCE
:1091200001D000F0C9F800BF80BD00BFF4010020ED
:109130000030024080B500AF114B124A1A60104B4C
:109140004FF4E1325A600E4B00229A600C4B002221
:10915000DA600B4B00221A61094B0C225A61084B52
:1091600000229A61064B0022DA61054801F0A6FD53
:109170000346002B01D000F09FF800BF80BD00BF68
:10918000FC0100200010014080B500AF114B124AD5
:109190001A60104B4FF4E1325A600E4B00229A6075
:1091A0000C4B0022DA600B4B00221A61094B0C2297
:1091B0005A61084B00229A61064B0022DA61054889
:1091C00001F07CFD0346002B01D000F075F800BFD4
:1091D00080BD00BFB00100200048004080B58AB0CB
:1091E00000AF07F1140300221A605A609A60DA6037
:1091F0001A6100233B612D4B1B6B2C4A43F080030B
:1092000013632A4B1B6B03F080033B613B69002314
:10921000FB60264B1B6B254A43F001031363234B72
:109220001B6B03F00103FB60FB680023BB601F4B5B
:109230001B6B1E4A43F0080313631C4B1B6B03F0AC
:109240000803BB60BB6800237B60184B1B6B174A8D
:1092500043F004031363154B1B6B03F004037B60A3
:109260007B6800224FF48051114801F07FF8012300
:109270007B610023BB610023FB6107F114031946E6
:109280000C4800F0BFFE4FF480537B610123BB61AB
:109290000023FB6100233B6207F1140319460448D5
:1092A00000F0B0FE00BF2837BD4680BD0038024048
:1092B000000C02400000024080B400AF72B600BF54
:1092C000FEE7000080B483B000AF00237B60104B4A
:1092D0005B6C0F4A43F4804353640D4B5B6C03F4A7
:1092E00080437B607B6800233B60094B1B6C084A12
:1092F00043F080531364064B1B6C03F080533B60B8
:109300003B6800BF0C37BD465DF8047B704700BF6B
:109310000038024080B485B000AF78607B681B687D
:109320000B4A93420DD10023FB600A4B1B6B094A89
:1093300043F480531363074B1B6B03F48053FB60B0
:10934000FB6800BF1437BD465DF8047B704700BF63
:10935000003002400038024080B58CB000AF786029
:1093600007F11C0300221A605A609A60DA601A61E1
:109370007B681B68334A93422DD10023BB61324B7B
:109380005B6C314A43F0100353642F4B5B6C03F06A
:109390001003BB61BB6900237B612B4B1B6B2A4A0B
:1093A00043F001031363284B1B6B03F001037B6144
:1093B0007B694FF4C063FB6102233B6200237B6245
:1093C0000323BB620723FB6207F11C0319461F48F6
:1093D00000F018FE31E07B681B681D4A93422CD1D7
:1093E00000233B61184B1B6C174A43F48023136422
:1093F000154B1B6C03F480233B613B690023FB602E
:10940000114B1B6B104A43F0040313630E4B1B6B91
:1094100003F00403FB60FB684FF44063FB6102232D
:109420003B6200237B620323BB620723FB6207F1DD
:109430001C031946074800F0E5FD00BF3037BD4664
:1094400080BD00BF00100140003802400000024013
:10945000004800400008024080B400AFFEE780B43E
:1094600000AFFEE780B400AFFEE780B400AFFEE7D8
:1094700080B400AFFEE780B400AF00BFBD465DF82A
:10948000047B704780B400AF00BFBD465DF8047B2D
:10949000704780B400AF00BFBD465DF8047B7047E5
:1094A00080B500AF00F0CAF800BF80BD80B586B0BF
:1094B00000AF7860144A154BD31A7B617B693B611E
:1094C000134B1B68002B02D1114B124A1A60104B30
:1094D0001A687B6813443A699A4207D201F0A6FFE2
:1094E00003460C221A604FF0FF3309E0084B1B685B
:1094F000FB60074B1A687B681344054A1360FB68DE
:1095000018461837BD4680BD000002200004000048
:10951000980000207802002080B400AF084BD3F8F8
:109520008830074A43F47003C2F88830044B4FF088
:1095300000629A6000BFBD465DF8047B704700BFC3
:1095400000ED00E0DFF834D00D480E490E4A00234C
:1095500002E0D458C4500433C4188C42F9D30B4AE7
:109560000B4C002301E013600432A242FBD3FFF74F
:10957000D3FF01F061FFFFF71DFD704700000220DF
:10958000000000207C00002074C000087C00002047
:1095900074020020FEE7000080B500AF0E4B1B6890
:1095A0000D4A43F4007313600B4B1B680A4A43F4E3
:1095B00080631360084B1B68074A43F48073136091
:1095C000032000F031F90F2000F008F8FFF77AFED1
:1095D0000023184680BD00BF003C024080B582B029
:1095E00000AF7860124B1A68124B1B7819464FF483
:1095F0007A73B3FBF1F3B2FBF3F3184600F03BF9D7
:109600000346002B01D001230EE07B680F2B0AD804
:10961000002279684FF0FF3000F011F9064A7B68AC
:109620001360002300E0012318460837BD4680BDC3
:109630000C000020140000201000002080B400AFB7
:10964000064B1B781A46064B1B681344044A1360EA
:1096500000BFBD465DF8047B704700BF14000020CA
:109660004002002080B400AF034B1B681846BD4683
:109670005DF8047B704700BF4002002080B584B0D5
:1096800000AF7860FFF7EEFFB8607B68FB60FB68B7
:10969000B3F1FF3F05D00A4B1B781A46FB68134411
:1096A000FB6000BFFFF7DEFF0246BB68D31AFA6813
:1096B0009A42F7D800BF00BF1037BD4680BD00BF3B
:1096C0001400002080B485B000AF78607B6803F0A0
:1096D0000703FB600C4BDB68BB60BA684FF6FF0307
:1096E0001340BB60FB681A02BB68134343F0BF63BF
:1096F00043F40033BB60044ABB68D36000BF143737
:10970000BD465DF8047B704700ED00E080B400AF1B
:10971000044BDB681B0A03F007031846BD465DF8DF
:10972000047B704700ED00E080B483B000AF0346D7
:109730003960FB7197F90730002B0ADB3B68DAB21E
:109740000C4997F907301201D2B20B4483F8002379
:109750000AE03B68DAB20849FB7903F00F03043BE7
:109760001201D2B20B441A7600BF0C37BD465DF829
:10977000047B704700E100E000ED00E080B489B0B8
:1097800000AFF860B9607A60FB6803F00703FB6123
:10979000FB69C3F10703042B28BF0423BB61FB69EA
:1097A0000433062B02D9FB69033B00E000237B61F5
:1097B0004FF0FF32BB6902FA03F3DA43BB681A4089
:1097C0007B699A404FF0FF317B6901FA03F3D9437B
:1097D0007B680B40134318462437BD465DF8047B75
:1097E0007047000080B582B000AF78607B68013BB5
:1097F000B3F1807F01D301230FE00A4A7B68013B6C
:1098000053600F214FF0FF30FFF78EFF054B002212
:109810009A60044B07221A60002318460837BD4699
:1098200080BD00BF10E000E080B582B000AF78607E
:109830007868FFF747FF00BF0837BD4680BD80B599
:1098400086B000AF0346B9607A60FB7300237B618A
:10985000FFF75CFF78617A68B9687869FFF78EFF77
:10986000024697F90F3011461846FFF75DFF00BF1B
:109870001837BD4680BD80B582B000AF786078688B
:10988000FFF7B0FF034618460837BD4680BD80B5D8
:1098900082B000AF78607B68002B01D101230EE01D
:1098A0007B685B79DBB2002B05D17B6800221A71E3
:1098B0007868FFF72FFD7B6801225A710023184654
:1098C0000837BD4680BD80B487B000AFF860B9608E
:1098D0007A6000233B61FB6802225A7100237B619E
:1098E0000AE07B699B00BA681A44FB681B6812682F
:1098F0001A607B6901337B617A697B689A42F0D395
:10990000FB681B681B683B61FB6801225A713B695D
:1099100018461C37BD465DF8047B704780B586B09D
:1099200000AFF860B960C7E900230123FB75234B42
:109930001B7E012B01D102233BE0204B01221A7632
:109940004CF2503000F09CF80346FB75FB7D002B79
:109950002BD1FB68002B05D13B781946B86800F085
:1099600047F916E0FB68012B05D13B881946B8681A
:1099700000F01AF90DE0FB68022B05D13B6819468F
:10998000B86800F0EFF804E0D7E90023B86800F009
:10999000B7F84CF2503000F073F80346FB75084BF3
:1099A0001B69074A23F001031361044B00221A7656
:1099B000FB7D18461837BD4680BD00BF440200201D
:1099C000003C024080B483B000AF0023FB710B4B1E
:1099D0001B69002B0BDA094B094A5A60074B094AED
:1099E0005A60064B1B69002B01DA0123FB71FB79DE
:1099F00018460C37BD465DF8047B7047003C0240BA
:109A000023016745AB89EFCD80B400AF054B1B69DF
:109A1000044A43F00043136100231846BD465DF835
:109A2000047B7047003C024080B400AF094B5B6987
:109A300003F00103002B07D0064B074A9A60054B41
:109A4000064A9A60002300E001231846BD465DF8EF
:109A5000047B7047003C02403B2A19087F6E5D4C36
:109A600080B400AF054B5B69044A43F001035361C6
:109A700000231846BD465DF8047B7047003C024059
:109A800080B584B000AF78600023FB601A4B0022E1
:109A9000DA61FFF7E7FDF86010E07B68B3F1FF3FA4
:109AA0000CD07B68002B07D0FFF7DCFD0246FB687B
:109AB000D31A7A689A4201D2032319E00F4BDB686C
:109AC00003F48033002BE8D10C4BDB6803F0010377
:109AD000002B02D0094B0122DA60084BDB6803F04F
:109AE000F203002B03D000F0A5F8012300E00023CF
:109AF00018461037BD4680BD44020020003C02409D
:109B000080B485B000AFF860C7E90023144B1B692F
:109B1000134A23F440731361114B1B69104A43F439
:109B2000407313610E4B1B690D4A43F0010313612F
:109B3000FB683A681A60BFF36F8F00BFD7E9000176
:109B40004FF000024FF000030A000023F9680431CF
:109B500013460B6000BF1437BD465DF8047B7047A9
:109B6000003C024080B483B000AF786039600D4B98
:109B70001B690C4A23F4407313610A4B1B69094AA1
:109B800043F400731361074B1B69064A43F001035A
:109B900013617B683A681A6000BF0C37BD465DF8F8
:109BA000047B7047003C024080B483B000AF786013
:109BB0000B467B800D4B1B690C4A23F440731361E9
:109BC0000A4B1B69094A43F480731361074B1B69F5
:109BD000064A43F0010313617B687A881A8000BF4C
:109BE0000C37BD465DF8047B704700BF003C024067
:109BF00080B483B000AF78600B46FB700C4B1B69E0
:109C00000B4A23F440731361094B094A1B69136122
:109C1000074B1B69064A43F0010313617B68FA781E
:109C20001A7000BF0C37BD465DF8047B704700BF5B
:109C3000003C024080B400AF274BDB6803F0100308
:109C4000002B08D0254BDB6943F01003234AD36176
:109C5000214B1022DA60204BDB6803F02003002B3D
:109C600008D01E4BDB6943F008031C4AD3611A4B32
:109C70002022DA60184BDB6803F04003002B08D089
:109C8000164BDB6943F00403144AD361124B4022A4
:109C9000DA60114BDB6803F08003002B08D00F4B18
:109CA000DB6943F002030D4AD3610B4B8022DA607B
:109CB000094BDB6803F00203002B08D0074BDB697C
:109CC00043F02003054AD361034B0222DA6000BF50
:109CD000BD465DF8047B7047003C02404402002012
:109CE00080B584B000AF786039600123FB73002336
:109CF000BB60314B1B7E012B01D1022358E02E4B60
:109D000001221A764CF25030FFF7BAFE0346FB737D
:109D1000FB7B002B48D13B684FF0FF321A607B6819
:109D20001B68012B15D17B681B69DAB27B685B6805
:109D30001946104600F068F84CF25030FFF7A0FECC
:109D40000346FB731D4B1B691C4A23F0040313617C
:109D500028E07B689B68BB601CE07B681B69DBB20A
:109D60001946B86800F074F84CF25030FFF788FEDE
:109D70000346FB73114B1B69104A23F0FA0313616E
:109D8000FB7B002B03D03B68BA681A600AE0BB6813
:109D90000133BB607B68DA687B689B681344BA68F0
:109DA0009A42DAD300F0E8F8034B00221A76FB7BE4
:109DB00018461037BD4680BD44020020003C0240DA
:109DC00080B582B000AF78607B680F221A6000F027
:109DD00097F803461A467B689A6000F09DF80346A0
:109DE0001A467B681A6100F07BF803461A467B68C6
:109DF0001A7600F0B1F803461A467B685A6100BF34
:109E00000837BD4680BD000080B483B000AF034674
:109E10003960FB710D4B1B690C4A23F440731361CD
:109E20000A4B1B69094A43F004031361074B1A6983
:109E3000FB791B021343054A43F48033136100BFCF
:109E40000C37BD465DF8047B704700BF003C024004
:109E500080B485B000AF78600B46FB700023FB60D8
:109E6000FB78002B02D10023FB6010E0FB78012B74
:109E700003D14FF48073FB6009E0FB78022B03D120
:109E80004FF40073FB6002E04FF44073FB60134B30
:109E90001B69124A23F440731361104B1A690F496E
:109EA000FB6813430B610D4B1B690C4A23F0F8034D
:109EB00013610A4B1A697B68DB001343074A43F0BE
:109EC00002031361054B1B69044A43F48033136199
:109ED00000BF1437BD465DF8047B7047003C02406C
:109EE00080B400AF054B5B69DBB223F01F03DBB22C
:109EF0001846BD465DF8047B704700BF003C024039
:109F000080B400AF034B1B889BB21846BD465DF87A
:109F1000047B7047163C024080B483B000AFAA2394
:109F2000FB710C4B1B78DBB2CC2B02D1CC23FB7129
:109F300009E0084B1B78DBB2AA2B02D1AA23FB71E4
:109F400001E05523FB71FB7918460C37BD465DF8DF
:109F5000047B7047153C024080B400AF054B1B7872
:109F6000DBB203F00C03DBB21846BD465DF8047BA0
:109F7000704700BF143C024080B400AF204B1B6808
:109F800003F40073002B17D01D4B1B681C4A23F4ED
:109F9000007313601A4B1B68194A43F40063136083
:109FA000174B1B68164A23F400631360144B1B689D
:109FB000134A43F400731360114B1B6803F480636E
:109FC000002B17D00E4B1B680D4A23F480631360DF
:109FD0000B4B1B680A4A43F480531360084B1B6801
:109FE000074A23F480531360054B1B68044A43F46B
:109FF0008063136000BFBD465DF8047B704700BFFF
:10A00000003C024080B489B000AF78603960002322
:10A010007B6100233B610023BB610023FB616BE19B
:10A020000122FB6902FA03F37B613B681B687A69D2
:10A0300013403B613A697B699A4240F05A813B6820
:10A040005B6803F00303012B05D03B685B6803F0FA
:10A050000303022B30D17B689B68BB61FB695B000B
:10A06000032202FA03F3DB43BA691340BB613B6886
:10A07000DA68FB695B0002FA03F3BA691343BB6158
:10A080007B68BA699A607B685B68BB610122FB6987
:10A0900002FA03F3DB43BA691340BB613B685B68B8
:10A0A0001B0903F00102FB6902FA03F3BA691343C7
:10A0B000BB617B68BA695A603B685B6803F0030365
:10A0C000032B17D07B68DB68BB61FB695B00032255
:10A0D00002FA03F3DB43BA691340BB613B689A6839
:10A0E000FB695B0002FA03F3BA691343BB617B6847
:10A0F000BA69DA603B685B6803F00303022B23D183
:10A10000FB69DA087B68083253F82230BB61FB69CF
:10A1100003F007039B000F2202FA03F3DB43BA6943
:10A120001340BB613B681A69FB6903F007039B009E
:10A1300002FA03F3BA691343BB61FB69DA087B686F
:10A140000832B96943F822107B681B68BB61FB6960
:10A150005B00032202FA03F3DB43BA691340BB61DD
:10A160003B685B6803F00302FB695B0002FA03F3E0
:10A17000BA691343BB617B68BA691A603B685B6864
:10A1800003F44033002B00F0B4800023FB60604BED
:10A190005B6C5F4A43F4804353645D4B5B6C03F438
:10A1A0008043FB60FB685B4AFB699B08023352F803
:10A1B0002330BB61FB6903F003039B000F2202FA0B
:10A1C00003F3DB43BA691340BB617B68524A934295
:10A1D0002BD07B68514A934225D07B68504A9342EA
:10A1E0001FD07B684F4A934219D07B684E4A9342F6
:10A1F00013D07B684D4A93420DD07B684C4A934202
:10A2000007D07B684B4A934201D107230EE0082315
:10A210000CE006230AE0052308E0042306E00323FC
:10A2200004E0022302E0012300E00023FA6902F0C7
:10A23000030292009340BA691343BB613549FB693D
:10A240009B080233BA6941F823203B4B1B68BB6172
:10A250003B69DB43BA691340BB613B685B6803F44D
:10A260008033002B03D0BA693B691343BB61324A88
:10A27000BB691360304B5B68BB613B69DB43BA6908
:10A280001340BB613B685B6803F40033002B03D0D1
:10A29000BA693B691343BB61274ABB695360264BCC
:10A2A0009B68BB613B69DB43BA691340BB613B6898
:10A2B0005B6803F48013002B03D0BA693B69134336
:10A2C000BB611D4ABB6993601B4BDB68BB613B698B
:10A2D000DB43BA691340BB613B685B6803F400135E
:10A2E000002B03D0BA693B691343BB61124ABB69B7
:10A2F000D360FB690133FB61FB690F2B7FF690AEE6
:10A3000000BF00BF2437BD465DF8047B704700BF27
:10A3100000380240003801400000024000040240C2
:10A3200000080240000C02400010024000140240ED
:10A3300000180240001C0240003C014080B485B07F
:10A3400000AF78600B467B807B681A697B8813407E
:10A35000002B02D00123FB7301E00023FB73FB7B86
:10A3600018461437BD465DF8047B704780B483B04F
:10A3700000AF78600B467B8013467B707B78002BA8
:10A3800003D07A887B689A6103E07B881A047B6833
:10A390009A6100BF0C37BD465DF8047B704780B4FE
:10A3A00085B000AF78600B467B807B685B69FB60A3
:10A3B0007A88FB6813401A04FB68D9437B880B40FA
:10A3C0001A437B689A6100BF1437BD465DF8047B71
:10A3D0007047000080B586B000AF78607B68002BC6
:10A3E00001D1012364E27B681B6803F00103002BA9
:10A3F00075D0A34B9B6803F00C03042B0CD0A04B2F
:10A400009B6803F00C03082B12D19D4B5B6803F48F
:10A410008003B3F5800F0BD1994B1B6803F4003315
:10A42000002B5BD07B685B68002B57D101233FE298
:10A430007B685B68B3F5803F06D1914B1B68904AFF
:10A4400043F4803313601DE07B685B68B3F5A02F95
:10A450000CD18B4B1B688A4A43F480231360884BD2
:10A460001B68874A43F4803313600BE0844B1B68FE
:10A47000834A23F480331360814B1B68804A23F4A2
:10A48000802313607B685B68002B13D0FFF7EAF82A
:10A49000386108E0FFF7E6F802463B69D31A642BFF
:10A4A00001D9032304E2764B1B6803F40033002B2D
:10A4B000F0D014E0FFF7D6F8386108E0FFF7D2F8E3
:10A4C00002463B69D31A642B01D90323F0E16C4B9C
:10A4D0001B6803F40033002BF0D100E000BF7B6861
:10A4E0001B6803F00203002B63D0654B9B6803F0ED
:10A4F0000C03002B0BD0624B9B6803F00C03082B62
:10A500001CD15F4B5B6803F48003002B16D15C4BBE
:10A510001B6803F00203002B05D07B68DB68012B6E
:10A5200001D00123C4E1564B1B6823F0F8027B687D
:10A530001B69DB00524913430B603AE07B68DB6820
:10A54000002B20D04F4B01221A60FFF78BF83861A7
:10A5500008E0FFF787F802463B69D31A022B01D9BE
:10A560000323A5E1464B1B6803F00203002BF0D048
:10A57000434B1B6823F0F8027B681B69DB004049F2
:10A5800013430B6015E03F4B00221A60FFF76AF897
:10A59000386108E0FFF766F802463B69D31A022BE0
:10A5A00001D9032384E1364B1B6803F00203002B1F
:10A5B000F0D17B681B6803F00803002B30D07B6868
:10A5C0005B69002B16D0304B01221A60FFF74AF866
:10A5D000386108E0FFF746F802463B69D31A022BC0
:10A5E00001D9032364E1264B5B6F03F00203002BC8
:10A5F000F0D015E0244B00221A60FFF733F83861E1
:10A6000008E0FFF72FF802463B69D31A022B01D965
:10A6100003234DE11A4B5B6F03F00203002BF0D1D3
:10A620007B681B6803F00403002B00F0A08000236C
:10A63000FB75134B1B6C03F08053002B0FD10023D1
:10A64000BB600F4B1B6C0E4A43F0805313640C4BE2
:10A650001B6C03F08053BB60BB680123FB750B4B85
:10A660001B6803F48073002B21D1084B1B68074A39
:10A6700043F480731360FEF7F5FF386111E000BF0B
:10A680000038024000004742800E47420070004000
:10A69000FEF7E8FF02463B69D31A022B01D90323D8
:10A6A00006E1854B1B6803F48073002BF0D07B68B8
:10A6B0009B68012B06D1814B1B6F804A43F001033D
:10A6C00013671CE07B689B68052B0CD17B4B1B6FD1
:10A6D0007A4A43F004031367784B1B6F774A43F0C1
:10A6E000010313670BE0754B1B6F744A23F00103E2
:10A6F0001367724B1B6F714A23F0040313677B6867
:10A700009B68002B15D0FEF7ADFF38610AE0FEF71D
:10A71000A9FF02463B69D31A41F28832934201D91C
:10A720000323C5E0654B1B6F03F00203002BEED043
:10A7300014E0FEF797FF38610AE0FEF793FF024648
:10A740003B69D31A41F28832934201D90323AFE027
:10A750005A4B1B6F03F00203002BEED1FB7D012B44
:10A7600005D1564B1B6C554A23F0805313647B680C
:10A770009B69002B00F09B80504B9B6803F00C03FF
:10A78000082B5CD07B689B69022B41D14C4B00228B
:10A790001A60FEF767FF386108E0FEF763FF0246C4
:10A7A0003B69D31A022B01D9032381E0434B1B6879
:10A7B00003F00073002BF0D17B68DA697B681B6AB9
:10A7C0001A437B685B6A9B011A437B689B6A5B0840
:10A7D000013B1B041A437B68DB6A1B0637491343A2
:10A7E0004B60374B01221A60FEF73CFF386108E0EE
:10A7F000FEF738FF02463B69D31A022B01D9032327
:10A8000056E02E4B1B6803F00073002BF0D04EE097
:10A810002B4B00221A60FEF725FF386108E0FEF797
:10A8200021FF02463B69D31A022B01D903233FE0E3
:10A83000224B1B6803F00073002BF0D137E07B68DC
:10A840009B69012B01D1012332E01C4B5B68FB604B
:10A850007B689B69012B28D0FB6803F480027B682E
:10A86000DB699A4221D1FB6803F03F027B681B6AD7
:10A870009A421AD1FA6847F6C07313407A68526A4E
:10A880009201934211D1FB6803F440327B689B6ACA
:10A890005B08013B1B049A4207D1FB6803F070621E
:10A8A0007B68DB6A1B069A4201D0012300E000238B
:10A8B00018461837BD4680BD007000400038024081
:10A8C0006000474280B584B000AF786039607B6833
:10A8D000002B01D10123CCE0684B1B6803F0070378
:10A8E0003A689A420CD9654B3A68D2B21A70634BF7
:10A8F0001B6803F007033A689A4201D00123B8E0CD
:10A900007B681B6803F00203002B20D07B681B6868
:10A9100003F00403002B05D0594B9B68584A43F4BD
:10A92000E05393607B681B6803F00803002B05D09D
:10A93000534B9B68524A43F460439360504B9B686F
:10A9400023F0F0027B689B684D4913438B607B6862
:10A950001B6803F00103002B44D07B685B68012B6C
:10A9600007D1474B1B6803F40033002B19D1012397
:10A970007FE07B685B68022B03D07B685B68032BFE
:10A9800007D13F4B1B6803F00073002B09D1012353
:10A990006FE03B4B1B6803F00203002B01D1012346
:10A9A00067E0374B9B6823F003027B685B683449A0
:10A9B00013438B60FEF756FEF8600AE0FEF752FE86
:10A9C0000246FB68D31A41F28832934201D903232D
:10A9D0004FE02B4B9B6803F00C027B685B689B008D
:10A9E0009A42EBD1254B1B6803F007033A689A4261
:10A9F0000CD2224B3A68D2B21A70204B1B6803F07B
:10AA000007033A689A4201D0012332E07B681B6851
:10AA100003F00403002B08D0194B9B6823F4E05289
:10AA20007B68DB68164913438B607B681B6803F007
:10AA30000803002B09D0124B9B6823F460427B680B
:10AA40001B69DB000E4913438B6000F021F80246BE
:10AA50000B4B9B681B0903F00F030A49CB5C22FADE
:10AA600003F3094A1360094B1B681846FEF7B6FD4D
:10AA7000002318461037BD4680BD00BF003C024091
:10AA80000038024018C000080C0000201000002010
:10AA90002DE9B04384B000AF00237B600023FB604E
:10AAA00000233B600023BB60674B9B6803F00C03F3
:10AAB000082B0DD0082B00F2BD80002B02D0042BF8
:10AAC00003D0B7E0614BBB60B7E0614BBB60B4E063
:10AAD0005D4B5B6803F03F037B605B4B5B6803F49B
:10AAE0008003002B4DD0584B5B689B091A464FF0F2
:10AAF000000340F2FF104FF0000102EA000803EAF1
:10AB00000109404649464FF000024FF000034B0157
:10AB100043EAD063420110461946B0EB080061EBEE
:10AB200009014FF000024FF000038B0143EA9063EC
:10AB30008201121A63EB01034FF000004FF0000195
:10AB4000D90041EA5271D00002460B4612EB0802CE
:10AB500043EB09034FF000004FF00001590241EAB6
:10AB6000D251500202460B46104619467B681A46DF
:10AB70004FF00003FDF784FB02460B461346FB60D3
:10AB80004AE0314B5B689B091A464FF0000340F2E4
:10AB9000FF104FF0000102EA000403EA010520461D
:10ABA00029464FF000024FF000034B0143EAD06307
:10ABB000420110461946001B61EB05014FF00002EF
:10ABC0004FF000038B0143EA90638201121A63EB9A
:10ABD00001034FF000004FF00001D90041EA52712B
:10ABE000D00002460B46121945EB03034FF000005C
:10ABF0004FF00001990241EA9251900202460B4641
:10AC0000104619467B681A464FF00003FDF738FBE3
:10AC100002460B461346FB600B4B5B681B0C03F0B4
:10AC2000030301335B003B60FA683B68B2FBF3F35C
:10AC3000BB6002E0054BBB6000BFBB681846103725
:10AC4000BD46BDE8B08300BF003802400024F400D8
:10AC500000127A0080B400AF034B1B681846BD4653
:10AC60005DF8047B704700BF0C00002080B500AF8A
:10AC7000FFF7F0FF0246054B9B689B0A03F00703B2
:10AC80000349CB5C22FA03F3184680BD003802402A
:10AC900028C0000880B500AFFFF7DCFF0246054B77
:10ACA0009B685B0B03F007030349CB5C22FA03F3B9
:10ACB000184680BD0038024028C0000880B582B028
:10ACC00000AF78607B68002B01D101233FE07B68F7
:10ACD00093F83D30DBB2002B06D17B68002283F86D
:10ACE0003C207868FEF738FB7B68242283F83D20FF
:10ACF0007B681B68DA687B681B6822F40052DA60A4
:10AD0000786800F0CBF97B681B681A697B681B6860
:10AD100022F490421A617B681B685A697B681B6841
:10AD200022F02A025A617B681B68DA687B681B681C
:10AD300042F40052DA607B6800221A647B682022A9
:10AD400083F83D207B68202283F83E2000231846AC
:10AD50000837BD4680BD80B58AB002AFF860B960E3
:10AD60003B601346FB8000237B61FB6893F83D301A
:10AD7000DBB2202B7CD1BB68002B02D0FB88002BE0
:10AD800001D1012375E0FB6893F83C30012B01D120
:10AD900002236EE0FB68012283F83C20FB6800225E
:10ADA0001A64FB68212283F83D20FEF75BFC786182
:10ADB000FB68FA889A84FB68FA88DA84FB689B68E7
:10ADC000B3F5805F08D1FB681B69002B04D1002319
:10ADD000FB61BB68BB6103E0BB68FB610023BB6137
:10ADE000FB68002283F83C202AE03B6800937B69E3
:10ADF00000228021F86800F0E2F80346002B01D021
:10AE0000032336E0FB69002B0BD1BB691B881A4674
:10AE1000FB681B68C2F308025A60BB690233BB615E
:10AE200007E0FB691A78FB681B685A60FB6901330D
:10AE3000FB61FB68DB8C9BB2013B9AB2FB68DA8456
:10AE4000FB68DB8C9BB2002BCFD13B6800937B6906
:10AE500000224021F86800F0B2F80346002B01D030
:10AE6000032306E0FB68202283F83D20002300E056
:10AE7000022318462037BD4680BD80B58AB002AF98
:10AE8000F860B9603B601346FB8000237B61FB6880
:10AE900093F83E30DBB2202B40F08C80BB68002B57
:10AEA00002D0FB88002B01D1012384E0FB6893F8DA
:10AEB0003C30012B01D102237DE0FB68012283F8A5
:10AEC0003C20FB6800221A64FB68222283F83E20A3
:10AED000FB6800221A63FEF7C5FB7861FB68FA88FD
:10AEE0009A85FB68FA88DA85FB689B68B3F5805F12
:10AEF00008D1FB681B69002B04D10023FB61BB68F0
:10AF0000BB6103E0BB68FB610023BB61FB680022FF
:10AF100083F83C2043E03B6800937B6900222021BA
:10AF2000F86800F04CF80346002B01D0032342E000
:10AF3000FB69002B0CD1FB681B685B689BB2C3F3F9
:10AF400008039AB2BB691A80BB690233BB611FE078
:10AF5000FB689B68B3F5805F07D0FB689B68002B9C
:10AF60000AD1FB681B69002B06D1FB681B685B6874
:10AF7000DAB2FB691A7008E0FB681B685B68DBB239
:10AF800003F07F03DAB2FB691A70FB690133FB61DE
:10AF9000FB68DB8D9BB2013B9AB2FB68DA85FB68EC
:10AFA000DB8D9BB2002BB6D1FB68202283F83E20BC
:10AFB000002300E0022318462037BD4680BD80B53F
:10AFC00090B000AFF860B9603B601346FB7150E091
:10AFD000BB6CB3F1FF3F4CD0BB6C002B07D0FEF72E
:10AFE00041FB02463B68D31ABA6C9A4241D2FB68D5
:10AFF0001B680C33BB62BB6A53E8003F7B627B6A11
:10B0000023F4D073FB63FB681B680C33FA6B7A6321
:10B010003B63396B7A6B41E80023FB62FB6A002BD0
:10B02000E5D1FB681B6814337B617B6953E8003F03
:10B030003B613B6923F00103BB63FB681B6814336E
:10B04000BA6B3A62FB61F9693A6A41E80023BB6175
:10B05000BB69002BE5D1FB68202283F83D20FB680B
:10B06000202283F83E20FB68002283F83C20032343
:10B070000FE0FB681B681A68BB681340BA689A4205
:10B080000CBF01230023DBB21A46FB799A429FD002
:10B09000002318464037BD4680BD00002DE9F04F23
:10B0A0009FB000AFF866FB6E1B681B6923F440502D
:10B0B000FB6ED968FB6E1A6840EA01031361FB6EF0
:10B0C0009A68FB6E1B691A43FB6E5B691A43FB6E41
:10B0D000DB6913433B67FB6E1B68DB6823F4164197
:10B0E00021F00C01FB6E1A683B6F0B43D360FB6EC3
:10B0F0001B685B6923F44070FB6E9969FB6E1A68EC
:10B1000040EA01035361FB6E1A68C54B9A4204D0B2
:10B11000FB6E1A68C34B9A4203D1FFF7BBFD7867F9
:10B1200002E0FFF7A3FD7867FB6EDB69B3F5004F24
:10B1300040F0B6807B6F1C464FF0000522462B4640
:10B14000911839645B417B64D7E91023121945EBF0
:10B1500003034FF000004FF00001D90041EA5271A3
:10B16000D00002460B46111939666B417B66FB6EB7
:10B170005B681A464FF000039118B9635B41FB63AB
:10B18000D7E90E23D7E91801FDF77AF802460B46F6
:10B19000A54BA3FB02235B091E017B6F1C464FF0EE
:10B1A000000522462B46911839635B417B63D7E942
:10B1B0000C23121945EB03034FF000004FF0000180
:10B1C000D90041EA5271D00002460B461119B96507
:10B1D0006B41FB65FB6E5B681A464FF000039118EC
:10B1E000B9625B41FB62D7E90A23D7E91601FDF793
:10B1F00047F802460B468C4BA3FB02135B09642104
:10B2000001FB03F3D31ADB003233874AA2FB03238B
:10B210005B095B0003F4F8731E447B6F18464FF024
:10B22000000102460B4694183C625B417B62D7E901
:10B230000823121841EB03034FF000044FF0000500
:10B24000DD0045EA5275D40022462B4614183C65B1
:10B250004B417B65FB6E5B681A464FF0000391180B
:10B26000B9615B41FB61D7E90623D7E91401FDF71A
:10B2700007F802460B466C4BA3FB02135B096421E3
:10B2800001FB03F3D31ADB003233674AA2FB03232B
:10B290005B0903F00702FB6E1B6832449A60B9E059
:10B2A0007B6F1C464FF0000522462B4691183961F2
:10B2B0005B417B61D7E90423121945EB03034FF08F
:10B2C00000004FF00001D90041EA5271D00002465F
:10B2D0000B4612EB040843EB0509FB6E5B6818464E
:10B2E0004FF000014FF000024FF000038B0043EAE3
:10B2F0009073820040464946FCF7C2FF02460B4667
:10B30000494BA3FB02235B091E017B6F18464FF0DC
:10B31000000102460B469418BC605B41FB60D7E914
:10B320000223121841EB03034FF000044FF0000515
:10B33000DD0045EA5275D40022462B461418BC6441
:10B340004B41FB64FB6E5B6818464FF000014FF009
:10B3500000024FF000038B0043EA90738200D7E9AC
:10B360001201FCF78DFF02460B462F4BA3FB021385
:10B370005B09642101FB03F3D31A1B0132332A4A10
:10B38000A2FB03235B0903F0F0031E447B6F184606
:10B390004FF0000102460B4694183C605B417B6015
:10B3A000D7E90023121841EB03034FF000044FF0DC
:10B3B0000005DD0045EA5275D40022462B4612EB0B
:10B3C000000A43EB010BFB6E5B6818464FF000016F
:10B3D0004FF000024FF000038B0043EA90738200AD
:10B3E00050465946FCF74CFF02460B460E4BA3FB5A
:10B3F00002135B09642101FB03F3D31A1B013233EF
:10B40000094AA2FB03235B0903F00F02FB6E1B68D2
:10B4100032449A6000BF7C37BD46BDE8F08F00BF64
:10B4200000100140001401401F85EB51014B1868CA
:10B43000704700BF1800002070B50D4D0D4C641B07
:10B44000A4100026A64209D10B4D0C4C00F04EFC76
:10B45000641BA4100026A64205D170BD55F8043B1C
:10B4600098470136EEE755F8043B98470136F2E776
:10B470006CC000086CC000086CC0000870C00008F8
:10B4800002440346934200D1704703F8011BF9E7D9
:10B4900000B59BB0009104916FF0004105910291BD
:10B4A00005490391694600F06FF8009B00221A706D
:10B4B0001BB05DF804FB00BF0802FFFF13460A46FD
:10B4C000014602480068FFF7E3BF00BF18000020F4
:10B4D0002DE9F0478E689E4282460C4690461F46F4
:10B4E00038D88A8912F4906F32D025680969A5EBA3
:10B4F0000109656905EB450505EBD57501334B443D
:10B500006D109D4238BF1D46530531D5294600F0C8
:10B5100047FB064650B90C23CAF80030A38943F014
:10B520004003A3814FF0FF30BDE8F08721694A4610
:10B5300000F0BEFAA38923F4906343F08003A38153
:10B54000266165614E44A5EB09052660A5603E466F
:10B55000BE4200D93E4632462068414600F0B6FA67
:10B56000A36822689B1B3244A36022600020DBE7B3
:10B570002A4600F06FFB06460028E1D121695046BB
:10B5800000F0BEFAC7E700002DE9F04F98468B891E
:10B590001B069DB007460D4614460ED50B6963B9D0
:10B5A000402100F0FDFA2860286120B90C233B609F
:10B5B0004FF0FF30D1E040236B610023099320233B
:10B5C0008DF82930CDF80C803023DFF8A8818DF874
:10B5D0002A304FF0010923469A4613F8012B0AB18D
:10B5E000252AF9D1BAEB040B0BD05B46224629463B
:10B5F0003846FFF76DFF013000F0AA80099A5A44DF
:10B6000009929AF80030002B00F0A28000234FF03E
:10B61000FF32CDE905230AF1010A049307938DF85F
:10B6200053301A935446052214F8011B5148FCF775
:10B63000D7FD049AD8B9D00644BF20238DF85330E3
:10B64000110744BF2B238DF853309AF800302A2B72
:10B6500015D0079A544600204FF00A0C214611F8E5
:10B66000013B303B092B4ED9B0B1079214E0A0EB5F
:10B67000080309FA03F313430493A246D2E7039B9A
:10B68000191D1B680391002BBBBF5B4242F00202F5
:10B6900007930793B8BF049223782E2B0CD16378BD
:10B6A0002A2B35D1039B1A1D1B680392002BB8BFB0
:10B6B0004FF0FF3302340593DFF8C8A0217803224E
:10B6C0005046FCF78DFD40B14023A0EB0A0003FA81
:10B6D00000F0049B03430134049314F8011B264833
:10B6E0008DF828100622FCF77BFD002838D0234B6C
:10B6F0001BBB039B073323F0070308330393099B0A
:10B700003344099367E70CFB02320C460120A5E79E
:10B7100000230134059319464FF00A0C204610F817
:10B72000012B303A092A03D9002BC5D00591C3E774
:10B730000CFB012104460123F0E703AB00932A46EA
:10B740000F4B04A93846AFF30080421C0646D6D101
:10B75000AB895B063FF52CAF09981DB0BDE8F08FB3
:10B7600003AB00932A46064B04A9384600F07AF84A
:10B77000EBE700BF30C000083AC00008000000003E
:10B78000D1B4000836C000082DE9F04716469946A6
:10B790008A680B69DDF820809342B8BF1346336096
:10B7A00091F8432007460C460AB101333360236801
:10B7B000990642BF336802333360256815F00605E9
:10B7C00006D104F1190AE36832689B1AAB4226DC01
:10B7D00094F84320131E226818BF012392062BD42D
:10B7E00004F1430249463846C04701301ED0236861
:10B7F000E568326803F00603042B08BFAD1AA3689E
:10B8000022690CBF25EAE57500259342C4BF9B1A47
:10B81000ED1800261A34B5421AD1002008E00123A1
:10B82000524649463846C047013003D14FF0FF30F9
:10B83000BDE8F0870135C6E7E1185A1C302081F8D1
:10B840004300224494F8451082F843100233C7E7BE
:10B850000123224649463846C0470130E6D001362A
:10B86000D9E700002DE9FF470C469146277E0C9949
:10B87000782F80469A4604F1430207D8622F0AD8EF
:10B88000002F00F0D880582F00F0A38004F142066A
:10B8900084F842703AE0A7F16303152BF6D801A0B3
:10B8A00050F823F0FDB8000811B900088DB8000861
:10B8B0008DB800088DB800088DB8000811B90008CF
:10B8C0008DB800088DB800088DB800088DB8000844
:10B8D0001DBA000841B90008FFB900088DB800087A
:10B8E0008DB800083FBA00088DB8000841B90008BB
:10B8F0008DB800088DB8000807BA00080B681A1D3B
:10B900001B680A6004F1420684F842300123A3E078
:10B91000256808682E0600F104030AD505680B6047
:10B92000002D03DA2D236D4284F843305E480A234C
:10B9300019E015F0400F05680B6018BF2DB2EFE756
:10B940000B682568181D0860280601D51D6802E0EF
:10B950006906FBD51D8854486F2F0CBF08230A23A6
:10B96000002184F843106668A660002EA2BF2168FB
:10B9700021F0040121600DB9002E4DD01646B5FB13
:10B98000F3F103FB1157C75D06F8017D2F46BB425B
:10B990000D46F4D9082B0BD12368DF0708D523699E
:10B9A00061689942DEBF302306F8013C06F1FF369C
:10B9B000921B2261CDF800A04B4603AA21464046C7
:10B9C000FFF7E2FE01304CD14FF0FF3004B0BDE88C
:10B9D000F087354884F8457023680E681F0656F8CE
:10B9E000045B0E6014D5D90744BF43F020032360E5
:10B9F0001DB9236823F0200323601023B0E72368D8
:10BA000043F0200323607823284884F84530E3E797
:10BA10005E0648BFADB2E6E71646BBE70B68266890
:10BA200060691D1D0D6035061B6801D5186002E0B8
:10BA30007106FBD51880002323611646BAE70B6810
:10BA40001A1D0A601E68626800213046FCF7C8FBB8
:10BA500008B1801B606063682361002384F8433071
:10BA6000A8E72369324649464046D0470130ABD06B
:10BA700023689B0713D4E068039B9842B8BF18461D
:10BA8000A4E70123324649464046D04701309BD0C7
:10BA90000135E36803995B1AAB42F2DCEBE7002562
:10BAA00004F11906F5E700BF41C0000852C00008C4
:10BAB0000A44914200F1FF3300D1704710B511F8EC
:10BAC000014B03F8014F9142F9D110BD884210B5E6
:10BAD00001EB020402D98442234607D8431EA14247
:10BAE00008D011F8012B03F8012FF8E702440146B2
:10BAF0008A4200D110BD13F8014D02F8014DF7E75D
:10BB000037B5002948D051F8043C0190002BA1F131
:10BB10000404B8BFE41800F0D3F8204A0198136871
:10BB2000154633B96360146003B0BDE8304000F0DF
:10BB3000CDB8A3420BD921686218934204BF1A689A
:10BB40005B68636004BF521822602C60ECE71A4601
:10BB50005B680BB1A342FAD911685518A5420BD105
:10BB6000246821445418A3421160DDD11C685B682D
:10BB7000536021441160D7E702D90C230360D3E757
:10BB8000256861198B4204BF19685B68636004BF54
:10BB9000491921605460C7E703B030BD9C00002004
:10BBA000F8B5CD1C25F0030508350C2D38BF0C2544
:10BBB000002D064601DBA94203D90C233360002087
:10BBC000F8BD00F07DF821490A6814469CB9204F61
:10BBD0003B6823B92146304600F062F838602946B8
:10BBE000304600F05DF8431C23D10C23336030460F
:10BBF00000F06CF8E3E723685B1B17D40B2B03D929
:10BC000023601C44256004E06368A2420CBF0B6003
:10BC10005360304600F05AF804F10B00231D20F069
:10BC20000700C21ACCD01B1AA350C9E72246646889
:10BC3000CCE7C41C24F00304A042E3D0211A304610
:10BC400000F02EF80130DDD1CFE700BF9C000020CE
:10BC5000A0000020F8B5074614460E4621B9BDE8FD
:10BC6000F8401146FFF79CBF22B9FFF749FF254670
:10BC70002846F8BD00F030F8A0420FD221463846E1
:10BC8000FFF78EFF05460028F2D031462246FFF727
:10BC90000FFF31463846FFF733FFE9E73546E7E760
:10BCA00038B5064D0023044608462B60FDF7FEFB21
:10BCB000431C02D12B6803B1236038BD640200200D
:10BCC000014800F011B800BF6C020020014800F0EC
:10BCD0000CB800BF6C02002051F8043C181F002B68
:10BCE000BCBF0B58C018704770477047F8B500BF0D
:10BCF000F8BC08BC9E467047F8B500BFF8BC08BC4D
:04BD00009E467047A4
:10BD0400424C5F4745545F5645525F434D4420695A
:10BD1400732072756E0A0000424C5F4445425547D9
:10BD24005F4D4553534147453A20436865636B7300
:10BD3400756D20737563636573200A00424C5F4719
:10BD440045545F48454C502069732072756E0A0053
:10BD5400424C5F4745545F434944206973207275E0
:10BD64006E0A0000424C5F44454255475F4D4553BF
:10BD7400534147452043484950204944203A20250F
:10BD840064000000424C5F4745545F5244502069B0
:10BD9400732072756E0A0000524450204C6576651B
:10BDA4006C203D2025640A00424C5F474F5F544F8E
:10BDB4005F414444524553532069732072756E0A9F
:10BDC40000000000474F20544F2041444452455343
:10BDD40053203A25640000004A554D50494E4720EF
:10BDE400474F20544F2041444452455353000000D0
:10BDF400474F204144445245535320494E56414CE9
:10BE04004944204552524F5200000000424C5F62A8
:10BE14006F6F746C6F616465725F666C6173685F89
:10BE240065726173652069732072756E0A00000083
:10BE3400424C5F44454255475F4D45535341474546
:10BE44003A20466C6173682065726173652073746F
:10BE540061747573202564200A20200A0000000004
:10BE6400424C5F6D656D6E5F77726974655F636D7B
:10BE7400642069732072756E0A0000004D656D6F51
:10BE84007279207772697465206164647265737372
:10BE9400202578200A000000424C5F444542554763
:10BEA4005F4D53473A2056414C4944204D454D453A
:10BEB4004F5259204144445245535300424C5F442D
:10BEC400454255475F4D53473A20494E56414C49E8
:10BED40044204D454D454F52592041444452455309
:10BEE40053000000424C5F656E61626C655F72775F
:10BEF4005F70726F746563742069732072756E0A63
:10BF040000000000424C5F44454255475F4D455395
:10BF1400534147453A20466C6173682070726F74D0
:10BF240065637420737461747573203A20256420EA
:10BF34000A000000424C204445425547204D5347D7
:10BF44003A2043616C6C656420626F6F746C6F613E
:10BF54006465725F6A756D705F746F5F7573657227
:10BF64005F6170706C69636174696F6E2829200A5F
:10BF740000000000424C204445425547204D5347A1
:10BF84003A204D53502056616C75653A202523782C
:10BF9400200A0000424C204445425547204D534757
:10BFA4003A2052657365742056616C75653A202594
:10BFB4002378200A00000000627574746F6E206993
:10BFC40073207072657373656420676F20746F20CB
:10BFD400424C20636F646500627574746F6E2069EF
:10BFE40073204E6F74207072657373656420676F7D
:10BFF40020746F207573657220636F6465000000A0
:10C0040073616D65640D0A006261736B696E0D0A7C
:10C014000000000000000000000000000102030412
:10C02400060708090000000001020304232D302B39
:10C034002000686C4C006566674546470030313225
:10C04400333435363738394142434445460030317C
:10C0540032333435363738396162636465660000DB
:08C064004CC2FF7F0100000047
:04C06C00B581000892
:04C0700091810008B2
:10C074005152535455565758595A5B5C0024F40096
:10C0840010000000010000001C000020000000005F
:10C09400000000000000000000000000000000009C
:10C0A400000000000000000000000000000000008C
:10C0B400000000000000000000000000000000007C
:10C0C400000000000000000000000000000000006C
:10C0D400000000000000000000000000000000005C
:0CC0E40000000000000000000000000050
:040000050800954515
:00000001FF
